:020000020000FC
:0200000007C037
:10000E0011C002E00EBF0FE50DBF0FEF0ABB0BBB19
:10001E0001D0FFCF02E003BF02E008BF02E009BF3C
:10002E00789408950F930FB70F93002707BB07B36C
:10003E000023B1F000270ABB0AB3002349F00027C2
:10004E0004BB04B30023A1F00F910FBF0F911895BD
:10005E000FEF0ABB00270BBB0FEF07BB08BBF4CF9C
:10006E000FEF07BB002708BB0FEF04BB05BBECCFA0
:10007E000FEF04BB002705BB0FEF0ABB0BBBE4CF92
:00000001FF
