:020000020000FC
:0400000006C016C060
:10000C0012C00FE50DBF02E00EBF0FEF07BB08BB20
:10001C0002E00EBD00270FBD00E808BF00E809BFD5
:10002C007894FFCF18950F930FB70F9308B3113037
:10003C0079F0123099F01330B9F01430D9F0153042
:10004C00F9F0163023C013950F910FBF0F9118952F
:10005C000F930FEF07EE08BB0F91F5CF0F930FEF38
:10006C0003EC08BB0F91EFCF0F930FEF01E808BB28
:10007C000F91E9CF0F930FEF03EC08BB0F91E3CF78
:10008C000F930FEF07EE08BB0F91DDCF0F930FEF20
:0A009C000FEF08BB0F9110E0D6CF64
:00000001FF
