:020000020000FC
:0600000006C01CC06CC02C
:10000C0018C00FE50DBF02E00EBF30E00FEF07BBCD
:10001C0008BB0AE005BF00EC0BBF789401E00EBDF5
:10002C0000270FBD00E808BF00E809BF7894FFCF98
:10003C0020952F3F11F04FD04ED00F930FB70F9349
:10004C0008B3303061F41130F9F0123019F113307B
:10005C0039F1143059F1153079F1163033C01130B3
:10006C0031F00BC013950F910FBF0F9118950F9393
:10007C000FEF0AEA08BB0F91F5CF0F930FEF05E5D1
:10008C0008BB0F9110E0EECF0F930FEF07EE08BBFC
:10009C000F91E8CF0F930FEF03EC08BB0F91E2CF5A
:1000AC000F930FEF01E808BB0F91DCCF0F930FEF0D
:1000BC0003EC08BB0F91D6CF0F930FEF07EE08BBE5
:1000CC000F91D0CF0F930FEF0FEF08BB0F9110E0F4
:1000DC00C9CF3095189520ED3AEC3A95F1F72A9561
:0600EC00E1F70000089599
:00000001FF
