:020000020000FC
:1000000002C080C083C002E00EBF0FE50DBF11E04B
:100010000AE005BF00EC0BBF789442D00FEF0ABB9B
:1000200007BB50D001C06DC011233AD04BD009F0AE
:1000300003C005D016D065C00BD021D062C070E0DF
:10004000C895302D29D0739531967330C9F708952E
:1000500070E0C895302D20D0739531967430C9F773
:10006000089570E0D99800EC08BB28D0C895302DD1
:1000700013D0739531967A30C9F710E00895D99866
:1000800000EC08BB1BD0C895302D332321F004D0E1
:100090003196F9CF11E00895D99A38BB0FD0089561
:1000A000D99808E308BB0AD0D9980EE008BB06D05F
:1000B0000CD0D99806E008BB01D00895D89AD898FA
:1000C00010D00895F1E0E4E10895D99801E008BB6B
:1000D000F5DF089526E031E33A95F1F72A95E1F747
:1000E000089524E332EF3A95F1F72A95E1F70000FD
:1000F000089520ED3AEC3A95F1F72A95E1F70000E2
:100100000895FFCF829B11E08FCF1895839B10E05D
:100110008BCF18954E504D32323036303831353223
:0C012000314E414D414A55414E444B00C8
:00000001FF
