:020000020000FC
:1000000002E00EBF0FE50DBF11E043D00FEF0ABBBA
:1000100007BB51D001D06EC070E0112301F008D0B1
:1000200019D037D00ED024D034D045D0F5CF089594
:1000300070E0C895302D29D0739531967330C9F78B
:10004000089570E0C895302D20D0739531967430A6
:10005000C9F7089570E0D99800EC08BB28D0C8957E
:10006000302D13D0739531967A30C9F710E008958A
:10007000D99800EC08BB1BD0C895302D332321F054
:1000800004D03196F9CF11E00895D99A38BB0FD03A
:100090000895D99808E308BB0AD0D9980EE008BBA8
:1000A00006D00CD0D99806E008BB01D00895D89AA4
:1000B000D89810D00895F0E0E6EF0895D99801E0BF
:1000C00008BBF5DF089526E031E33A95F1F72A956C
:1000D000E1F7089524E332EF3A95F1F72A95E1F735
:1000E0000000089520ED3AEC3A95F1F72A95E1F7F2
:1000F00000000895FFCF4E504D3232303630383147
:0E0100003532314E414D414A55414E444B007F
:00000001FF
